:100000000C946C000C9494000C9494000C94940048
:100010000C9494000C9494000C9494000C94940010
:100020000C9494000C9494000C9494000C942C0167
:100030000C9494000C9494000C9494000C949400F0
:100040000C94E2000C9494000C9494000C94940092
:100050000C9494000C9494000C9494000C949400D0
:100060000C9494000C94940005A84CCDB2D44EB9D5
:100070003836A9020C50B9918688083CA6AAAA2A4B
:10008000BE000000803F00000000240027002A007E
:1000900000000000250028002B00040404040404D0
:1000A0000404020202020202030303030303010227
:1000B00004081020408001020408102001020408F6
:1000C00010200000000800020100000304070000E7
:1000D000000000000000640311241FBECFEFD8E031
:1000E000DEBFCDBF11E0A0E0B1E0E6E4FDE002C07C
:1000F00005900D92A030B107D9F721E0A0E0B1E062
:1001000001C01D92A633B207E1F710E0CCE6D0E0C3
:1001100004C02197FE010E94EE03CB36D107C9F738
:100120000E94E8010C94A1060C94000090E0FC01F0
:10013000EE53FF4F2491FC01E255FF4F3491FC0137
:10014000E656FF4FE491EE23C9F0222339F0233025
:1001500001F1A8F4213019F1223029F1F0E0EE0F7D
:10016000FF1FE057FF4FA591B4918FB7F894EC9122
:10017000611126C030953E233C938FBF08952730F0
:10018000A9F02830C9F0243049F7809180008F7D94
:1001900003C0809180008F7780938000DFCF84B58B
:1001A0008F7784BDDBCF84B58F7DFBCF8091B0008E
:1001B0008F778093B000D2CF8091B0008F7DF9CF40
:1001C0003E2BDACF1F920F920FB60F9211242F936E
:1001D0003F938F939F93AF93BF9380913201909100
:1001E0003301A0913401B09135013091310123E008
:1001F000230F2D3758F50196A11DB11D2093310114
:100200008093320190933301A0933401B093350170
:1002100080912D0190912E01A0912F01B09130017C
:100220000196A11DB11D80932D0190932E01A093E5
:100230002F01B0933001BF91AF919F918F913F916A
:100240002F910F900FBE0F901F90189526E8230F47
:100250000296A11DB11DD2CF1F920F920FB60F9221
:1002600011242F933F934F935F936F937F938F93BB
:100270009F93AF93BF93CF93DF93EF93FF938091BF
:100280000101C0910001D0E087FF24C010928500D9
:1002900010928400809101018F5F80930101809111
:1002A0000101082E000C990B8C179D0724F48091F6
:1002B00001018C30C4F180918400909185000496F6
:1002C00080349C4908F47AC0809184009091850024
:1002D000049676C080910101082E000C990B8C17B2
:1002E0009D07C4F6E09101018E2FEE0F990BFC01E2
:1002F000EE0FFF1FE80FF91FEE5FFE4F808186FFB4
:10030000C9CFE09101018E2FEE0F990BFC01EE0F8A
:10031000FF1FE80FF91FEE5FFE4F808160E08F73D3
:100320000E949600B7CF2091840030918500E09123
:1003300001018E2FEE0F990BFC01EE0FFF1FE80F4E
:10034000F91FEE5FFE4F81819281820F931F909380
:10035000890080938800E09101018E2FEE0F990BA8
:10036000FC01EE0FFF1FE80FF91FEE5FFE4F8081CB
:1003700086FF11C0E09101018E2FEE0F990BFC0159
:10038000EE0FFF1FE80FF91FEE5FFE4F808161E067
:100390008F730E949600FF91EF91DF91CF91BF91F3
:1003A000AF919F918F917F916F915F914F913F910D
:1003B0002F910F900FBE0F901F90189580E49CE92D
:1003C00090938900809388008FEF80930101E3CFA1
:1003D000789484B5826084BD84B5816084BD85B520
:1003E000826085BD85B5816085BD80916E0081602C
:1003F00080936E00109281008091810082608093D2
:1004000081008091810081608093810080918000D3
:100410008160809380008091B10084608093B100FE
:100420008091B00081608093B00080917A008460F8
:1004300080937A0080917A00826080937A00809124
:100440007A00816080937A0080917A00806880933E
:100450007A001092C100809126018C3008F068C0AB
:10046000E7EBF0E02491E3EAF0E08491882399F04F
:1004700090E0880F991FFC01EA57FF4FA591B491B6
:10048000FC01E057FF4F859194918FB7F894EC9160
:10049000E22BEC938FBF80912601282F30E0F901E9
:1004A000EE0FFF1FE20FF31FEE5FFE4F9081907C77
:1004B0009960908310922701109228012CE0622FFE
:1004C0000E94E203829FB001112430E020E0AB01E2
:1004D000420F531FFA01EE0FFF1FE40FF51FEE5FEF
:1004E000FE4F908196FD16C02F5F3F4F2C30310597
:1004F00071F781110FC01092800082E0809381001B
:100500001092850010928400B19A80916F008260F1
:1005100080936F00E09126018E2F90E0FC01EE0F9A
:10052000FF1FE80FF91FEE5FFE4F8081806480831C
:10053000C8E8D0E008E512E0A4EB8A2E912CA12CAB
:10054000B12CB0E0EB2EB0E0FB2E2BED3FE049E408
:1005500050E46091290170912A0180912B019091C2
:100560002C010E94B20520E030E044E353E40E94F5
:1005700078040E941F069B01AC010E94B20520E096
:1005800030E044E353E40E94B20520E030E0A901EA
:100590000E94F5030E9461040E94EA049B016032FC
:1005A00042E07407BCF5209127012E01421A510840
:1005B00027FD5394440C551C440C551C052C000C71
:1005C0006608770820912801A801421B510927FDE0
:1005D00053959A01220F331F220F331F032E000C55
:1005E000440B550B2419350946095709DB01653BB6
:1005F000710514F0A4EBB0E0B7FF02C0B0E0A0E0DA
:100600000E94A903A50194010E947F03240D351DBA
:10061000461D571DE0912601EC3080F580912701A1
:10062000AE01481B510987FD5395CA01880F991FD8
:10063000880F991F2817390784F080912801A80195
:10064000481B510987FD5395CA01880F991F880FD0
:10065000991F281739070CF4C9010297880F991FB1
:100660004FB7F8942E2F30E0F901EE0FFF1FE20F85
:10067000F31FEE5FFE4F928381834FBF5FEF89EFE1
:1006800090E0515080409040E1F700C0000020E031
:1006900030E040E85FE36091290170912A01809188
:1006A0002B0190912C010E94F50360932901709316
:1006B0002A0180932B0190932C01E114F10409F499
:1006C00044CF0E94000041CF809100018C3098F40B
:1006D00091E0980F909300018093260190E0FC0137
:1006E000EE0FFF1FE80FF91FEE5FFE4F88EB9BE058
:1006F0009283818308958FEF809326010895052EBC
:1007000097FB1EF400940E94960357FD07D00E94A9
:10071000B10307FC03D04EF40C949603509540951A
:10072000309521953F4F4F4F5F4F0895909580959D
:10073000709561957F4F8F4F9F4F08950E94D3030F
:10074000A59F900DB49F900DA49F800D911D112425
:100750000895B7FF0C949E030E949E03821B930B87
:100760000895A1E21A2EAA1BBB1BFD010DC0AA1FF2
:10077000BB1FEE1FFF1FA217B307E407F50720F00A
:10078000A21BB30BE40BF50B661F771F881F991F85
:100790001A9469F760957095809590959B01AC01CE
:1007A000BD01CF010895A29FB001B39FC001A39FD7
:1007B000700D811D1124911DB29F700D811D11249A
:1007C000911D0895991B79E004C0991F961708F0B0
:1007D000961B881F7A95C9F780950895EE0FFF1F25
:1007E0000590F491E02D09945058BB27AA270E9448
:1007F0000C040C9460050E94520538F00E945905C3
:1008000020F039F49F3F19F426F40C944F050EF4B0
:10081000E095E7FB0C942005E92F0E94710558F341
:10082000BA17620773078407950720F079F4A6F5D5
:100830000C94AB050EF4E0950B2EBA2FA02D0B01F6
:10084000B90190010C01CA01A0011124FF27591B15
:1008500099F0593F50F4503E68F11A16F040A22F1B
:10086000232F342F4427585FF3CF4695379527958C
:10087000A795F0405395C9F77EF41F16BA0B620B8B
:10088000730B840BBAF09150A1F0FF0FBB1F661FD2
:10089000771F881FC2F70EC0BA0F621F731F841F15
:1008A00048F4879577956795B795F7959E3F08F03B
:1008B000B0CF9395880F08F09927EE0F97958795FD
:1008C00008950E94930590F09F3748F4911116F413
:1008D0000C94AC0560E070E080E89FE3089526F09A
:1008E0001B16611D711D811D0C9426050C9441057C
:1008F0000E948C040C9460050E94590558F00E94D7
:10090000520540F029F45F3F29F00C942005511165
:100910000C94AC050C944F050E94710568F3992363
:10092000B1F3552391F3951B550BBB27AA276217EB
:100930007307840738F09F5F5F4F220F331F441FF8
:10094000AA1FA9F335D00E2E3AF0E0E832D091502C
:100950005040E695001CCAF72BD0FE2F29D0660F19
:10096000771F881FBB1F261737074807AB07B0E85C
:1009700009F0BB0B802DBF01FF2793585F4F3AF062
:100980009E3F510578F00C9420050C94AC055F3F18
:10099000E4F3983ED4F3869577956795B795F795E8
:1009A0009F5FC9F7880F911D9695879597F90895D0
:1009B000E1E0660F771F881FBB1F6217730784076C
:1009C000BA0720F0621B730B840BBA0BEE1F88F77B
:1009D000E09508950E94F1046894B1110C94AC055F
:1009E00008950E94790588F09F5798F0B92F9927AC
:1009F000B751B0F0E1F0660F771F881F991F1AF00A
:100A0000BA95C9F714C0B13091F00E94AB05B1E0BE
:100A100008950C94AB05672F782F8827B85F39F0BD
:100A2000B93FCCF3869577956795B395D9F73EF4A2
:100A300090958095709561957F4F8F4F9F4F08954A
:100A400097F99F6780E870E060E00895882371F46B
:100A5000772321F09850872B762F07C0662311F457
:100A600099270DC09051862B70E060E02AF09A958E
:100A7000660F771F881FDAF7880F9695879597F985
:100A800008959F3F31F0915020F4879577956795B1
:100A9000B795880F911D9695879597F908959FEFC3
:100AA00080EC089500240A94161617061806090605
:100AB000089500240A9412161306140605060895D4
:100AC000092E0394000C11F4882352F0BB0F40F45C
:100AD000BF2B11F460FF04C06F5F7F4F8F4F9F4F9C
:100AE000089557FD9058440F551F59F05F3F71F01E
:100AF0004795880F97FB991F61F09F3F79F0879585
:100B00000895121613061406551FF2CF4695F1DF0D
:100B100008C0161617061806991FF1CF869571059D
:100B20006105089408950E947905A0F0BEE7B91701
:100B300088F4BB279F3860F41616B11D672F782FF5
:100B40008827985FF7CF869577956795B11D939520
:100B50009639C8F30895E894BB2766277727CB0119
:100B600097F908950E94C5050C9460050E945205EE
:100B700038F00E94590520F0952311F00C942005BF
:100B80000C944F0511240C94AC050E94710570F370
:100B9000959FC1F3950F50E0551F629FF001729F22
:100BA000BB27F00DB11D639FAA27F00DB11DAA1F31
:100BB000649F6627B00DA11D661F829F2227B00D7E
:100BC000A11D621F739FB00DA11D621F839FA00D09
:100BD000611D221F749F3327A00D611D231F849F59
:100BE000600D211D822F762F6A2F11249F575040B0
:100BF0009AF0F1F088234AF0EE0FFF1FBB1F661F2B
:100C0000771F881F91505040A9F79E3F510580F0F3
:100C10000C9420050C94AC055F3FE4F3983ED4F3AC
:100C2000869577956795B795F795E7959F5FC1F797
:100C3000FE2B880F911D9695879597F908959F93A0
:100C40000E9429060F9007FCEE5F0C9452060C944C
:100C50004F050E947905D8F3E894E0E0BB279F5741
:100C6000F0F02AED3FE049EC06C0EE0FBB0F661F27
:100C7000771F881F28F0B23A62077307840728F0AD
:100C8000B25A620B730B840BE3959A9572F7803816
:100C900030F49A95BB0F661F771F881FD2F79048D4
:100CA0000C944305EF93E0FF07C0A2EA2AED3FE072
:100CB00049EC5FEB0E940C040E9460050F900394C6
:100CC00001FC9058E8E6F0E00C9466069F938F9341
:100CD0007F936F93FF93EF939B01AC010E94B2054A
:100CE000EF91FF910E947A062F913F914F915F9172
:100CF0000C94B205DF93CF931F930F93FF92EF9263
:100D0000DF927B018C01689406C0DA2EEF010E940D
:100D1000C505FE01E894A591259135914591559120
:100D2000A6F3EF010E940C04FE019701A801DA94DA
:100D300069F7DF90EF90FF900F911F91CF91DF91B6
:060D40000895F894FFCFB6
:00000001FF
